:02120700C1091B
:10117500D2A412111012110EC2A4121110C2A57F11
:06118500057E00021114BA
:1011A100C2A412111012110ED2A47F057E000211E9
:0111B1001429
:10118B00C2A412111012110EC2A5121110D2A47FFB
:06119B00057E00021114A4
:1011B200D2A412111012110EC2A57F057E000211D7
:0111C2001418
:100F8100E4F52BD2A4F52AE52B25E0F52B12110E61
:100F910030A403432B01C2A5121110052AE52AC36F
:060FA100940840E3AF2BB1
:010FA7002227
:020EAA008F2A8D
:100EAC00E4F52BE52A3392A4E52A25E0F52A121164
:100EBC000EC2A5121110052BE52BC3940840E4D2E9
:100ECC00A412111012110E30A408C2A51211107F19
:090EDC000122C2A51211107F00D1
:010EE50022EA
:100FF600752701121175E52725E0FF120EAA8F2825
:101006001211A1E5287003AF27220527E527C3940F
:051016008040E07F00B6
:01101B0022B2
:041202007F02DFFE8A
:0112060022C5
:06110E00D2A57F057E0062
:04111400AD07AC0671
:10111800E4FBFAC3EB9DEA9C500A1212020BBB00D7
:04112800010A80EF49
:01112C0022A0
:1010CC008F828E83D3E5829400E58394004011E5F2
:1010DC00821582700215837FE87E0312111480E45E
:0110EC0022E1
:1010ED00566F6C756D652025690A005374617469BE
:1010FD006F6E2025690A0044656C61792025690AA7
:01110D0000E1
:100C5100E4F522F523F524752532120DC520941AE9
:100C610012115E7F647E001210CC1211E98E2A8F60
:100C71002B7BFF7A1079ED120E6320951A12114623
:100C81007F647E001210CC1211E98E2A8F2B7BFF1C
:100C91007A1079ED120E6320971A1211C37FE87E44
:100CA100031210CC1210888E2A8F2B7BFF7A1079B9
:100CB100F8120E6320961A1211D07FE87E031210EB
:100CC100CC1210888E2A8F2B7BFF7A1079F8120EA6
:100CD1006320930D7522007523017F647E0012103D
:100CE100CCE523640145226003020C5E12112DAF95
:100CF10025AE241210CC209233E525B42C0DE52429
:100D0100B40108752400752532800B74322525F550
:100D110025E43524F5247BFF7A11790485242A857D
:100D2100252B120E637F647E001210CC30930302D8
:070D31000C5EE4F522F5233E
:010D38002298
:100E1900526164696F20666F756E64206174203059
:100E290078253032780A004C6F6164696E672064F6
:100E3900656661756C74732E2E2E0A004465766999
:100E49006365206E6F7420666F756E640A00537453
:0A0E59006174696F6E2025690A00BC
:100DC5001210AA120FF68F26E526603E1211FC7F3F
:100DD500647E001210CC12101C7BFF7A0E791985E7
:100DE500262A120E637BFF7A0E7930120E63750A7E
:100DF500D0750B01750E08750F00120FA8E4FFFEE4
:100E05001211DD7F547E24020F1D7BFF7A0E79457A
:030E1500120E6357
:010E180022B7
:020EE6008F2754
:100EE8001211757F22120EAAAF27120EAA121175BF
:100EF8007F23120EAA120F818F2812118B120F81D5
:100F08008F291211B21211A1E528FE7C00E42529CF
:040F1800FFEC3EFEAE
:010F1C0022B2
:021066008F27D2
:10106800ECF528EDF5291211757F22120EAAAF278B
:10107800120EAAAF28120EAAAF29120EAA0211A1A7
:10101C007F02120EE68E0A8F0B7F03120EE68E0CE9
:10102C008F0D7F04120EE68E0E8F0F7F05120EE6CB
:05103C008E108F11224F
:100FA800AD0BAC0A7F02121066AD0DAC0C7F0312BC
:100FB8001066AD0FAC0E7F04121066AD11AC107F39
:070FC8000512106602101C67
:0611FC00430B02020FA8E4
:100F1D00EF2404FFEE34DEFE7C007D0A120B87EF1A
:100F2D007806C333CE33CED8F92410FFE43EFEF558
:100F3D000C8F0D120FA81210888E2A8F2B7BFF7A23
:060F4D000E7957020E634D
:1010880012101CAF0DAE0CEF7806CEC313CE13D8DA
:10109800F9FF7C007D0A120B75EF24FCFFEE34216A
:0110A800FE49
:0110A9002224
:0D11C300430A02430A01120FA8530AFC223E
:0D11D000530AFD430A01120FA8530AFC2226
:0C11DD005311F0EF4211EE4210020FA877
:0A11E90012101C7E00E511540FFFE8
:0111F30022D9
:10115E001211E9C3EF9410EE9400500AEF2401FF30
:06116E00E43EFE1211DD5B
:011174002258
:101146001211E9D3EF9400EE9400400BEF24FFFF59
:07115600EE34FFFE1211DD73
:01115D00226F
:10112D00121088BE2A09BF30067E217FFC8007740D
:09113D000A2FFFE43EFE020F1D23
:1010AA00E598543F4440F59853A23F438E04538E2B
:1010BA00F7438E0175D7D875D6FFD2AFD2AC438E1F
:0210CA001022F2
:0811F4008F993099FDC2992288
:101041008B5A8A5B895CAB5AAA5BA95C120B5C6008
:1010510013055CE55C7002055B14F9120B5CFF1271
:0510610011F480E22201
:060E63008B278A28892973
:100E690075570075580075592AE4FF7E1E7839E4D4
:100E7900F608DEFC85275A85285B85295C85575D40
:100E890085585E85595F7B007A007939120F537551
:100E990057007558007559007B007A00793902109E
:010EA9004107
:03000000020D39B5
:0C0D3900787FE4F6D8FD758173020D8010
:100B5C00BB010689828A83E0225002E722BBFE0297
:090B6C00E32289828A83E49322CA
:100B7500EF8DF0A4A8F0CF8CF0A428CE8DF0A42E94
:020B8500FE224E
:100B8700BC000BBE0029EF8DF084FFADF022E4CC52
:100B9700F875F008EF2FFFEE33FEEC33FCEE9DEC1B
:100BA700984005FCEE9DFE0FD5F0E9E4CEFD22ED61
:100BB700F8F5F0EE8420D21CFEADF075F008EF2FAB
:100BC700FFED33FD4007985006D5F0F222C398FD9C
:050BD7000FD5F0EA2239
:100F5300855A63855B64855C65EBC55DFBEAC55EAD
:100F6300FAE9C55FF97F097866120B5CF60809E9AF
:0E0F730070010ADFF4AB5DAA5EA95F02085CA4
:100D4500020C51E493A3F8E493A34003F68001F267
:100D550008DFF48029E493A3F85407240CC8C333AF
:100D6500C4540F4420C8834004F456800146F6DF7E
:100D7500E4800B0102040810204080901207E47EF5
:100D8500019360BCA3FF543F30E509541FFEE49373
:100D9500A360010ECF54C025E060A840B8E493A33A
:100DA500FAE493A3F8E493A3C8C582C8CAC583CA65
:100DB500F0A3C8C582C8CAC583CADFE9DEE780BE1D
:0112090000E4
:10080000E56F2463F8E6056F2278603007027863AD
:10081000E475F001120C1B020B5C2000EB7F2ED262
:10082000008018EF540F2490D43440D4FF30040BD0
:10083000EF24BFB41A0050032461FFE57060021575
:10084000700573E5737002057230070D7860E4750A
:10085000F001120C1BEF020C09020FCF7403D20738
:100860008003E4C207F56F8B608A618962E4F570EA
:10087000F572F573E57060077F2012083B80F5750F
:1008800071FFC201C200C202C203C205C206C20891
:10089000120809FF700D3007057F0012084CAF7376
:1008A000AE7222B4255FC2D5C204120809FF24D05B
:1008B000B40A00501A75F00A787030D50508B6FFF2
:1008C0000106C6A426F620D5047002D20380D924DE
:1008D000CFB41A00EF5004C2E5D204020A4CD20190
:1008E00080C6D20080C0D20280BCD2D580BAD205E8
:1008F00080B47F2012083B2002077401B5700040CD
:10090000F1120800FF12083B020874D208D20680D8
:1009100095120800FB120800FA120800F94A4B7001
:1009200006791D7A0B7BFF20022EE570602A7E007F
:100930008E82758300120BDC60060EEE657170F01E
:10094000C2D5EBC0E0EAC0E0E9C0E0EE120A93D005
:10095000E0F9D0E0FAD0E0FB120B5CFF60AAEBC03C
:10096000E0EAC0E0E9C0E012083BD0E02401F9D0A1
:10097000E03400FAD0E0FBE5710460DCD571D98089
:10098000877BFF7A0A798FD202809C791080027966
:1009900008C206C2088008D2D5790A8004790AC242
:1009A000D5E571047002F571E4FAFDFEFF1208004E
:1009B000FC7B08200113120800FD7B1030000A1296
:1009C0000800FE120800FF7B20EC3382D592D55040
:1009D00013C3E43000069FFFE49EFEE42001039D64
:1009E000FDE49CFCE4CBF8C201EC700CCFCECDCC86
:1009F000E824F8F870F38017C3EF33FFEE33FEED11
:100A000033FDEC33FCEB33FB994002FB0FD8E9EBF1
:100A1000300105F8D0E0C448B201C0E00AEC4D4E08
:100A20004F78207B0070C2EAB5710040BCC0E01274
:100A30000A95D0F0D0E0200104C4C0E0C4B201C0E7
:100A4000F0120824D0F0D5F0EB020874120C2B0938
:100A50001153098B5808E24C08DE42098F4F099761
:0F0A60004409974908F743099D550981460981C3
:100A6F00450981470B3D5008E62D08EA2E090D2B4D
:100A7F0008EE23090B200B262A08A64800000905BB
:100A8F003F3F3F00790AA2D5200314300509B91062
:100A9F00020404B9080104A2D52006025001042063
:100AAF0002689202B570005034C0E07F2030031905
:100ABF007F30A20272067205500F120AECC202C2F8
:100ACF0006C205C2087F30800F300503E9C0E0126F
:100ADF00083B300503D0E0F9D0E0B570CC300517F6
:100AEF007F30B9100C12083B7F583004077F788095
:100AFF0003B9080312083B3002057F2D02083B7F24
:100B0F00202008F87F2B2006F322920280CF286E38
:100B1F00756C6C2900D2011208003001F8C20178FF
:100B2F007030D50108F60208A62D50434958120817
:100B3F00002403B405004001E4900B389312082CF5
:0D0B4F00743A12082CD20375700402098B51
:100BDC00BB010CE58229F582E5833AF583E02250CE
:100BEC0006E92582F8E622BBFE06E92582F8E22218
:0D0BFC00E58229F582E5833AF583E4932232
:100C0900BB010689828A83F0225002F722BBFE01CA
:020C1900F322C4
:100C1B00FAE6FB0808E6F925F0F618E6CA3AF622DA
:100C2B00D083D082F8E4937012740193700DA3A358
:100C3B0093F8740193F5828883E47374029368606C
:060C4B00EFA3A3A380DF6C
:100FCF00EFB40A07740D120FDA740A309811A8994A
:100FDF00B8130CC2983098FDA899C298B811F63082
:070FEF0099FDC299F599225A
:00000001FF
